{
  "contractName": "CertificateContract",
  "abi": [
    {
      "anonymous": false,
      "inputs": [
        {
          "indexed": true,
          "internalType": "bytes32",
          "name": "certificateHash",
          "type": "bytes32"
        },
        {
          "indexed": true,
          "internalType": "address",
          "name": "issuer",
          "type": "address"
        },
        {
          "indexed": true,
          "internalType": "address",
          "name": "student",
          "type": "address"
        }
      ],
      "name": "CertificateIssued",
      "type": "event"
    },
    {
      "anonymous": false,
      "inputs": [
        {
          "indexed": true,
          "internalType": "bytes32",
          "name": "certificateHash",
          "type": "bytes32"
        }
      ],
      "name": "CertificateRevoked",
      "type": "event"
    },
    {
      "inputs": [
        {
          "internalType": "bytes32",
          "name": "",
          "type": "bytes32"
        }
      ],
      "name": "certificates",
      "outputs": [
        {
          "internalType": "bytes32",
          "name": "certificateHash",
          "type": "bytes32"
        },
        {
          "internalType": "address",
          "name": "issuer",
          "type": "address"
        },
        {
          "internalType": "address",
          "name": "student",
          "type": "address"
        },
        {
          "internalType": "bool",
          "name": "isRevoked",
          "type": "bool"
        },
        {
          "internalType": "uint256",
          "name": "timestamp",
          "type": "uint256"
        }
      ],
      "stateMutability": "view",
      "type": "function"
    },
    {
      "inputs": [
        {
          "internalType": "bytes32",
          "name": "_certificateHash",
          "type": "bytes32"
        },
        {
          "internalType": "address",
          "name": "_student",
          "type": "address"
        }
      ],
      "name": "issueCertificate",
      "outputs": [],
      "stateMutability": "nonpayable",
      "type": "function"
    },
    {
      "inputs": [
        {
          "internalType": "bytes32",
          "name": "_certificateHash",
          "type": "bytes32"
        }
      ],
      "name": "verifyCertificate",
      "outputs": [
        {
          "internalType": "bool",
          "name": "",
          "type": "bool"
        },
        {
          "internalType": "address",
          "name": "",
          "type": "address"
        },
        {
          "internalType": "address",
          "name": "",
          "type": "address"
        },
        {
          "internalType": "uint256",
          "name": "",
          "type": "uint256"
        }
      ],
      "stateMutability": "view",
      "type": "function"
    },
    {
      "inputs": [
        {
          "internalType": "bytes32",
          "name": "_certificateHash",
          "type": "bytes32"
        }
      ],
      "name": "revokeCertificate",
      "outputs": [],
      "stateMutability": "nonpayable",
      "type": "function"
    }
  ],
  "bytecode": "0x608060405234801561001057600080fd5b506104e5806100206000396000f3fe608060405234801561001057600080fd5b506004361061004c5760003560e01c8063742f068814610051578063850c1768146100db578063bc153c0714610120578063c6cbc52a14610135575b600080fd5b6100a061005f36600461045a565b600060208190529081526040902080546001820154600283015460039093015491926001600160a01b039182169291811691600160a01b90910460ff169085565b604080519586526001600160a01b039485166020870152929093169184019190915215156060830152608082015260a0015b60405180910390f35b6100ee6100e936600461045a565b610148565b6040516100d2949392919093151584526001600160a01b03928316602085015291166040830152606082015260800190565b61013361012e366004610473565b610227565b005b61013361014336600461045a565b61034c565b600081815260208181526040808320815160a0810183528154815260018201546001600160a01b0390811694820194909452600282015493841692810192909252600160a01b90920460ff1615156060820152600390910154608082018190528291829182919082036102025760405162461bcd60e51b815260206004820152601a60248201527f436572746966696361746520646f6573206e6f7420657869737400000000000060448201526064015b60405180910390fd5b8060600151158160200151826040015183608001519450945094509450509193509193565b600082815260208190526040902060030154156102865760405162461bcd60e51b815260206004820152601a60248201527f436572746966696361746520616c72656164792065786973747300000000000060448201526064016101f9565b6040805160a0810182528381523360208083018281526001600160a01b038681168587018181526000606088018181524260808a019081528c8352968290528982209851895594516001890180549186166001600160a01b0319909216919091179055905160028801805495511515600160a01b026001600160a81b031990961691909416179390931790915591516003909401939093559251909185917f96acc7d29f59de96f3b52573049182d873062e60b6dd01e0bf81b3cb8f1078229190a45050565b60008181526020819052604081206003015490036103ac5760405162461bcd60e51b815260206004820152601a60248201527f436572746966696361746520646f6573206e6f7420657869737400000000000060448201526064016101f9565b6000818152602081905260409020600101546001600160a01b0316331461040e5760405162461bcd60e51b81526020600482015260166024820152754f6e6c79206973737565722063616e207265766f6b6560501b60448201526064016101f9565b600081815260208190526040808220600201805460ff60a01b1916600160a01b1790555182917f44d80a438cb4fa3b5aedbe551ce3d9382e37f446917b783e1dee70a03b4180e391a250565b60006020828403121561046c57600080fd5b5035919050565b6000806040838503121561048657600080fd5b8235915060208301356001600160a01b03811681146104a457600080fd5b80915050925092905056fea2646970667358221220a2413d008240e4fd718a87414b7702d270824567b558ab4e398ce4101793de3964736f6c63430008130033",
  "immutableReferences": {},
  "source": "// SPDX-License-Identifier: MIT\r\npragma solidity ^0.8.0;\r\n\r\ncontract CertificateContract {\r\n    struct Certificate {\r\n        bytes32 certificateHash;\r\n        address issuer;\r\n        address student;\r\n        bool isRevoked;\r\n        uint256 timestamp;\r\n    }\r\n    \r\n    mapping(bytes32 => Certificate) public certificates;\r\n    \r\n    event CertificateIssued(\r\n        bytes32 indexed certificateHash,\r\n        address indexed issuer,\r\n        address indexed student\r\n    );\r\n    \r\n    event CertificateRevoked(bytes32 indexed certificateHash);\r\n    \r\n    function issueCertificate(bytes32 _certificateHash, address _student) public {\r\n        require(certificates[_certificateHash].timestamp == 0, \"Certificate already exists\");\r\n        \r\n        certificates[_certificateHash] = Certificate({\r\n            certificateHash: _certificateHash,\r\n            issuer: msg.sender,\r\n            student: _student,\r\n            isRevoked: false,\r\n            timestamp: block.timestamp\r\n        });\r\n        \r\n        emit CertificateIssued(_certificateHash, msg.sender, _student);\r\n    }\r\n    \r\n    function verifyCertificate(bytes32 _certificateHash) public view returns (bool, address, address, uint256) {\r\n        Certificate memory cert = certificates[_certificateHash];\r\n        require(cert.timestamp != 0, \"Certificate does not exist\");\r\n        \r\n        return (\r\n            !cert.isRevoked,\r\n            cert.issuer,\r\n            cert.student,\r\n            cert.timestamp\r\n        );\r\n    }\r\n    \r\n    function revokeCertificate(bytes32 _certificateHash) public {\r\n        require(certificates[_certificateHash].timestamp != 0, \"Certificate does not exist\");\r\n        require(certificates[_certificateHash].issuer == msg.sender, \"Only issuer can revoke\");\r\n        \r\n        certificates[_certificateHash].isRevoked = true;\r\n        emit CertificateRevoked(_certificateHash);\r\n    }\r\n} ",
  "sourcePath": "D:\\Hackathon\\SIT\\Round 2\\Code\\_from scratch\\contracts\\CertificateContract.sol",
  "compiler": {
    "name": "solc",
    "version": "0.8.19+commit.7dd6d404.Emscripten.clang"
  },
  "schemaVersion": "3.4.16",
  "updatedAt": "2025-02-19T17:09:20.098Z",
  "devdoc": {
    "kind": "dev",
    "methods": {},
    "version": 1
  },
  "userdoc": {
    "kind": "user",
    "methods": {},
    "version": 1
  }
}