{
  "contractName": "CertificateRegistry",
  "abi": [
    {
      "inputs": [],
      "stateMutability": "nonpayable",
      "type": "constructor"
    },
    {
      "anonymous": false,
      "inputs": [
        {
          "indexed": true,
          "internalType": "bytes32",
          "name": "certificateHash",
          "type": "bytes32"
        },
        {
          "indexed": true,
          "internalType": "address",
          "name": "issuer",
          "type": "address"
        },
        {
          "indexed": true,
          "internalType": "address",
          "name": "student",
          "type": "address"
        },
        {
          "indexed": false,
          "internalType": "string",
          "name": "metadataURI",
          "type": "string"
        }
      ],
      "name": "CertificateIssued",
      "type": "event"
    },
    {
      "anonymous": false,
      "inputs": [
        {
          "indexed": true,
          "internalType": "bytes32",
          "name": "certificateHash",
          "type": "bytes32"
        },
        {
          "indexed": true,
          "internalType": "address",
          "name": "revokedBy",
          "type": "address"
        },
        {
          "indexed": false,
          "internalType": "uint256",
          "name": "timestamp",
          "type": "uint256"
        }
      ],
      "name": "CertificateRevoked",
      "type": "event"
    },
    {
      "anonymous": false,
      "inputs": [
        {
          "indexed": false,
          "internalType": "address",
          "name": "account",
          "type": "address"
        }
      ],
      "name": "Paused",
      "type": "event"
    },
    {
      "anonymous": false,
      "inputs": [
        {
          "indexed": true,
          "internalType": "bytes32",
          "name": "role",
          "type": "bytes32"
        },
        {
          "indexed": true,
          "internalType": "bytes32",
          "name": "previousAdminRole",
          "type": "bytes32"
        },
        {
          "indexed": true,
          "internalType": "bytes32",
          "name": "newAdminRole",
          "type": "bytes32"
        }
      ],
      "name": "RoleAdminChanged",
      "type": "event"
    },
    {
      "anonymous": false,
      "inputs": [
        {
          "indexed": true,
          "internalType": "bytes32",
          "name": "role",
          "type": "bytes32"
        },
        {
          "indexed": true,
          "internalType": "address",
          "name": "account",
          "type": "address"
        },
        {
          "indexed": true,
          "internalType": "address",
          "name": "sender",
          "type": "address"
        }
      ],
      "name": "RoleGranted",
      "type": "event"
    },
    {
      "anonymous": false,
      "inputs": [
        {
          "indexed": true,
          "internalType": "bytes32",
          "name": "role",
          "type": "bytes32"
        },
        {
          "indexed": true,
          "internalType": "address",
          "name": "account",
          "type": "address"
        },
        {
          "indexed": true,
          "internalType": "address",
          "name": "sender",
          "type": "address"
        }
      ],
      "name": "RoleRevoked",
      "type": "event"
    },
    {
      "anonymous": false,
      "inputs": [
        {
          "indexed": false,
          "internalType": "address",
          "name": "university",
          "type": "address"
        }
      ],
      "name": "UniversityAdded",
      "type": "event"
    },
    {
      "anonymous": false,
      "inputs": [
        {
          "indexed": false,
          "internalType": "address",
          "name": "university",
          "type": "address"
        }
      ],
      "name": "UniversityRemoved",
      "type": "event"
    },
    {
      "anonymous": false,
      "inputs": [
        {
          "indexed": false,
          "internalType": "address",
          "name": "account",
          "type": "address"
        }
      ],
      "name": "Unpaused",
      "type": "event"
    },
    {
      "inputs": [],
      "name": "ADMIN_ROLE",
      "outputs": [
        {
          "internalType": "bytes32",
          "name": "",
          "type": "bytes32"
        }
      ],
      "stateMutability": "view",
      "type": "function"
    },
    {
      "inputs": [],
      "name": "DEFAULT_ADMIN_ROLE",
      "outputs": [
        {
          "internalType": "bytes32",
          "name": "",
          "type": "bytes32"
        }
      ],
      "stateMutability": "view",
      "type": "function"
    },
    {
      "inputs": [],
      "name": "UNIVERSITY_ROLE",
      "outputs": [
        {
          "internalType": "bytes32",
          "name": "",
          "type": "bytes32"
        }
      ],
      "stateMutability": "view",
      "type": "function"
    },
    {
      "inputs": [
        {
          "internalType": "bytes32",
          "name": "",
          "type": "bytes32"
        }
      ],
      "name": "certificates",
      "outputs": [
        {
          "internalType": "bytes32",
          "name": "certificateHash",
          "type": "bytes32"
        },
        {
          "internalType": "address",
          "name": "issuer",
          "type": "address"
        },
        {
          "internalType": "address",
          "name": "student",
          "type": "address"
        },
        {
          "internalType": "bool",
          "name": "isRevoked",
          "type": "bool"
        },
        {
          "internalType": "uint256",
          "name": "timestamp",
          "type": "uint256"
        },
        {
          "internalType": "string",
          "name": "metadataURI",
          "type": "string"
        }
      ],
      "stateMutability": "view",
      "type": "function"
    },
    {
      "inputs": [
        {
          "internalType": "bytes32",
          "name": "role",
          "type": "bytes32"
        }
      ],
      "name": "getRoleAdmin",
      "outputs": [
        {
          "internalType": "bytes32",
          "name": "",
          "type": "bytes32"
        }
      ],
      "stateMutability": "view",
      "type": "function"
    },
    {
      "inputs": [
        {
          "internalType": "bytes32",
          "name": "role",
          "type": "bytes32"
        },
        {
          "internalType": "address",
          "name": "account",
          "type": "address"
        }
      ],
      "name": "grantRole",
      "outputs": [],
      "stateMutability": "nonpayable",
      "type": "function"
    },
    {
      "inputs": [
        {
          "internalType": "bytes32",
          "name": "role",
          "type": "bytes32"
        },
        {
          "internalType": "address",
          "name": "account",
          "type": "address"
        }
      ],
      "name": "hasRole",
      "outputs": [
        {
          "internalType": "bool",
          "name": "",
          "type": "bool"
        }
      ],
      "stateMutability": "view",
      "type": "function"
    },
    {
      "inputs": [],
      "name": "paused",
      "outputs": [
        {
          "internalType": "bool",
          "name": "",
          "type": "bool"
        }
      ],
      "stateMutability": "view",
      "type": "function"
    },
    {
      "inputs": [
        {
          "internalType": "bytes32",
          "name": "role",
          "type": "bytes32"
        },
        {
          "internalType": "address",
          "name": "account",
          "type": "address"
        }
      ],
      "name": "renounceRole",
      "outputs": [],
      "stateMutability": "nonpayable",
      "type": "function"
    },
    {
      "inputs": [
        {
          "internalType": "bytes32",
          "name": "role",
          "type": "bytes32"
        },
        {
          "internalType": "address",
          "name": "account",
          "type": "address"
        }
      ],
      "name": "revokeRole",
      "outputs": [],
      "stateMutability": "nonpayable",
      "type": "function"
    },
    {
      "inputs": [
        {
          "internalType": "bytes4",
          "name": "interfaceId",
          "type": "bytes4"
        }
      ],
      "name": "supportsInterface",
      "outputs": [
        {
          "internalType": "bool",
          "name": "",
          "type": "bool"
        }
      ],
      "stateMutability": "view",
      "type": "function"
    },
    {
      "inputs": [
        {
          "internalType": "address",
          "name": "",
          "type": "address"
        }
      ],
      "name": "universities",
      "outputs": [
        {
          "internalType": "bool",
          "name": "",
          "type": "bool"
        }
      ],
      "stateMutability": "view",
      "type": "function"
    },
    {
      "inputs": [
        {
          "internalType": "address",
          "name": "university",
          "type": "address"
        }
      ],
      "name": "addUniversity",
      "outputs": [],
      "stateMutability": "nonpayable",
      "type": "function"
    },
    {
      "inputs": [
        {
          "internalType": "address",
          "name": "university",
          "type": "address"
        }
      ],
      "name": "removeUniversity",
      "outputs": [],
      "stateMutability": "nonpayable",
      "type": "function"
    },
    {
      "inputs": [
        {
          "internalType": "bytes32",
          "name": "_certificateHash",
          "type": "bytes32"
        },
        {
          "internalType": "address",
          "name": "_student",
          "type": "address"
        },
        {
          "internalType": "string",
          "name": "_metadataURI",
          "type": "string"
        }
      ],
      "name": "issueCertificate",
      "outputs": [],
      "stateMutability": "nonpayable",
      "type": "function"
    },
    {
      "inputs": [
        {
          "internalType": "bytes32",
          "name": "_certificateHash",
          "type": "bytes32"
        }
      ],
      "name": "verifyCertificate",
      "outputs": [
        {
          "internalType": "bool",
          "name": "isValid",
          "type": "bool"
        },
        {
          "internalType": "address",
          "name": "issuer",
          "type": "address"
        },
        {
          "internalType": "address",
          "name": "student",
          "type": "address"
        },
        {
          "internalType": "uint256",
          "name": "timestamp",
          "type": "uint256"
        },
        {
          "internalType": "string",
          "name": "metadataURI",
          "type": "string"
        }
      ],
      "stateMutability": "view",
      "type": "function"
    },
    {
      "inputs": [
        {
          "internalType": "bytes32",
          "name": "_certificateHash",
          "type": "bytes32"
        }
      ],
      "name": "revokeCertificate",
      "outputs": [],
      "stateMutability": "nonpayable",
      "type": "function"
    },
    {
      "inputs": [],
      "name": "getCertificateCount",
      "outputs": [
        {
          "internalType": "uint256",
          "name": "",
          "type": "uint256"
        }
      ],
      "stateMutability": "view",
      "type": "function"
    },
    {
      "inputs": [],
      "name": "pause",
      "outputs": [],
      "stateMutability": "nonpayable",
      "type": "function"
    },
    {
      "inputs": [],
      "name": "unpause",
      "outputs": [],
      "stateMutability": "nonpayable",
      "type": "function"
    }
  ],
  "bytecode": "0x608060405234801561001057600080fd5b506001805460ff19169055610026600033610055565b6100507fa49807205ce4d355092ef5a8a18f56e8913cf4a201fbe287825b095693c2177533610055565b610101565b61005f8282610063565b5050565b6000828152602081815260408083206001600160a01b038516845290915290205460ff1661005f576000828152602081815260408083206001600160a01b03851684529091529020805460ff191660011790556100bd3390565b6001600160a01b0316816001600160a01b0316837f2f8788117e7eff1d82e926ec794901d17c78024a50270940304540a733656f0d60405160405180910390a45050565b6114ed806101106000396000f3fe608060405234801561001057600080fd5b506004361061012c5760003560e01c806375922c5d116100ad57806391d148541161007157806391d1485414610281578063a217fddf14610294578063c6cbc52a1461029c578063d547741f146102af578063f0995560146102c257600080fd5b806375922c5d1461022557806375b238fc146102385780638456cb591461024d578063850c1768146102555780638809f7271461027957600080fd5b806339bdf2a1116100f457806339bdf2a1146101c55780633d178414146101d85780633f4ba83a146101ed5780635c975abb146101f5578063742f06881461020057600080fd5b806301ffc9a714610131578063248a9ca31461015957806328f54b2f1461018a5780632f2ff15d1461019f57806336568abe146101b2575b600080fd5b61014461013f366004610fd0565b6102e5565b60405190151581526020015b60405180910390f35b61017c610167366004610ffa565b60009081526020819052604090206001015490565b604051908152602001610150565b61019d61019836600461102f565b61031c565b005b61019d6101ad36600461104a565b6103a5565b61019d6101c036600461104a565b6103cf565b61019d6101d336600461102f565b610452565b61017c60008051602061147883398151915281565b61019d6104d6565b60015460ff16610144565b61021361020e366004610ffa565b6104f9565b604051610150969594939291906110c6565b61019d610233366004611129565b6105cd565b61017c60008051602061149883398151915281565b61019d6107fa565b610268610263366004610ffa565b61081a565b6040516101509594939291906111f4565b61017c61099e565b61014461028f36600461104a565b6109ae565b61017c600081565b61019d6102aa366004610ffa565b6109d7565b61019d6102bd36600461104a565b610b8c565b6101446102d036600461102f565b60036020526000908152604090205460ff1681565b60006001600160e01b03198216637965db0b60e01b148061031657506301ffc9a760e01b6001600160e01b03198316145b92915050565b60008051602061149883398151915261033481610bb1565b61034c60008051602061147883398151915283610b8c565b6001600160a01b038216600081815260036020908152604091829020805460ff1916905590519182527f2ad4ce55dbf197589d24f6a11ebec345d1a50286aae2e4cc6f69c7aad1fadde091015b60405180910390a15050565b6000828152602081905260409020600101546103c081610bb1565b6103ca8383610bbb565b505050565b6001600160a01b03811633146104445760405162461bcd60e51b815260206004820152602f60248201527f416363657373436f6e74726f6c3a2063616e206f6e6c792072656e6f756e636560448201526e103937b632b9903337b91039b2b63360891b60648201526084015b60405180910390fd5b61044e8282610c3f565b5050565b60008051602061149883398151915261046a81610bb1565b610482600080516020611478833981519152836103a5565b6001600160a01b038216600081815260036020908152604091829020805460ff1916600117905590519182527f1bd776fe56dabdcdce7a058540a81f2015efbfd2b70a9a062754353200dc171f9101610399565b6000805160206114988339815191526104ee81610bb1565b6104f6610ca4565b50565b60026020819052600091825260409091208054600182015492820154600383015460048401805493956001600160a01b039081169590841694600160a01b90940460ff169390919061054a9061123a565b80601f01602080910402602001604051908101604052809291908181526020018280546105769061123a565b80156105c35780601f10610598576101008083540402835291602001916105c3565b820191906000526020600020905b8154815290600101906020018083116105a657829003601f168201915b5050505050905086565b6105e5600080516020611478833981519152336109ae565b6106315760405162461bcd60e51b815260206004820152601a60248201527f43616c6c6572206973206e6f74206120756e6976657273697479000000000000604482015260640161043b565b610639610cf6565b600083815260026020526040902060030154156106985760405162461bcd60e51b815260206004820152601a60248201527f436572746966696361746520616c726561647920657869737473000000000000604482015260640161043b565b6001600160a01b0382166106ee5760405162461bcd60e51b815260206004820152601760248201527f496e76616c69642073747564656e742061646472657373000000000000000000604482015260640161043b565b6040805160c0810182528481523360208083019182526001600160a01b03868116848601908152600060608601818152426080880190815260a088018a81528c8452600296879052989092208751815595516001870180549186166001600160a01b03199092169190911790559151938501805492511515600160a01b026001600160a81b031990931694909316939093171790555160038201559151909190600482019061079d90826112c2565b505060048054600101905550816001600160a01b0316336001600160a01b0316847fbc4a4f0fa0098f904f89c1a5c16b7f86f04fe4777297b1196ab18bdde928ffb5846040516107ed9190611382565b60405180910390a4505050565b60008051602061149883398151915261081281610bb1565b6104f6610d3e565b6000818152600260208181526040808420815160c0810183528154815260018201546001600160a01b03908116948201949094529381015492831691840191909152600160a01b90910460ff1615156060808401919091526003820154608084015260048201805485948594859493859360a08401919061089a9061123a565b80601f01602080910402602001604051908101604052809291908181526020018280546108c69061123a565b80156109135780601f106108e857610100808354040283529160200191610913565b820191906000526020600020905b8154815290600101906020018083116108f657829003601f168201915b505050505081525050905080608001516000036109725760405162461bcd60e51b815260206004820152601a60248201527f436572746966696361746520646f6573206e6f74206578697374000000000000604482015260640161043b565b606081015160208201516040830151608084015160a09094015192159a91995097509195509350915050565b60006109a960045490565b905090565b6000918252602082815260408084206001600160a01b0393909316845291905290205460ff1690565b6109ef600080516020611498833981519152336109ae565b80610a1357506000818152600260205260409020600101546001600160a01b031633145b610a5f5760405162461bcd60e51b815260206004820152601860248201527f4e6f7420617574686f72697a656420746f207265766f6b650000000000000000604482015260640161043b565b6000818152600260205260408120600301549003610abf5760405162461bcd60e51b815260206004820152601a60248201527f436572746966696361746520646f6573206e6f74206578697374000000000000604482015260640161043b565b60008181526002602081905260409091200154600160a01b900460ff1615610b295760405162461bcd60e51b815260206004820152601b60248201527f436572746966696361746520616c7265616479207265766f6b65640000000000604482015260640161043b565b60008181526002602081905260409182902001805460ff60a01b1916600160a01b17905551339082907f85fe6dd2dfc4757558754564c7ff020182ec3c918257c2ff3a217a63791ec24f90610b819042815260200190565b60405180910390a350565b600082815260208190526040902060010154610ba781610bb1565b6103ca8383610c3f565b6104f68133610d79565b610bc582826109ae565b61044e576000828152602081815260408083206001600160a01b03851684529091529020805460ff19166001179055610bfb3390565b6001600160a01b0316816001600160a01b0316837f2f8788117e7eff1d82e926ec794901d17c78024a50270940304540a733656f0d60405160405180910390a45050565b610c4982826109ae565b1561044e576000828152602081815260408083206001600160a01b0385168085529252808320805460ff1916905551339285917ff6391f5c32d9c69d2a47ea670b442974b53935d1edc7fd64eb21e047a839171b9190a45050565b610cac610dd2565b6001805460ff191690557f5db9ee0a495bf2e6ff9c91a7834c1ba4fdd244a5e8aa4e537bd38aeae4b073aa335b6040516001600160a01b03909116815260200160405180910390a1565b60015460ff1615610d3c5760405162461bcd60e51b815260206004820152601060248201526f14185d5cd8589b194e881c185d5cd95960821b604482015260640161043b565b565b610d46610cf6565b6001805460ff1916811790557f62e78cea01bee320cd4e420270b5ea74000d11b0c9f74754ebdbfc544b05a25833610cd9565b610d8382826109ae565b61044e57610d9081610e1b565b610d9b836020610e2d565b604051602001610dac929190611395565b60408051601f198184030181529082905262461bcd60e51b825261043b91600401611382565b60015460ff16610d3c5760405162461bcd60e51b815260206004820152601460248201527314185d5cd8589b194e881b9bdd081c185d5cd95960621b604482015260640161043b565b60606103166001600160a01b03831660145b60606000610e3c836002611420565b610e47906002611437565b67ffffffffffffffff811115610e5f57610e5f611113565b6040519080825280601f01601f191660200182016040528015610e89576020820181803683370190505b509050600360fc1b81600081518110610ea457610ea461144a565b60200101906001600160f81b031916908160001a905350600f60fb1b81600181518110610ed357610ed361144a565b60200101906001600160f81b031916908160001a9053506000610ef7846002611420565b610f02906001611437565b90505b6001811115610f7a576f181899199a1a9b1b9c1cb0b131b232b360811b85600f1660108110610f3657610f3661144a565b1a60f81b828281518110610f4c57610f4c61144a565b60200101906001600160f81b031916908160001a90535060049490941c93610f7381611460565b9050610f05565b508315610fc95760405162461bcd60e51b815260206004820181905260248201527f537472696e67733a20686578206c656e67746820696e73756666696369656e74604482015260640161043b565b9392505050565b600060208284031215610fe257600080fd5b81356001600160e01b031981168114610fc957600080fd5b60006020828403121561100c57600080fd5b5035919050565b80356001600160a01b038116811461102a57600080fd5b919050565b60006020828403121561104157600080fd5b610fc982611013565b6000806040838503121561105d57600080fd5b8235915061106d60208401611013565b90509250929050565b60005b83811015611091578181015183820152602001611079565b50506000910152565b600081518084526110b2816020860160208601611076565b601f01601f19169290920160200192915050565b8681526001600160a01b0386811660208301528516604082015283151560608201526080810183905260c060a082018190526000906111079083018461109a565b98975050505050505050565b634e487b7160e01b600052604160045260246000fd5b60008060006060848603121561113e57600080fd5b8335925061114e60208501611013565b9150604084013567ffffffffffffffff8082111561116b57600080fd5b818601915086601f83011261117f57600080fd5b81358181111561119157611191611113565b604051601f8201601f19908116603f011681019083821181831017156111b9576111b9611113565b816040528281528960208487010111156111d257600080fd5b8260208601602083013760006020848301015280955050505050509250925092565b85151581526001600160a01b038581166020830152841660408201526060810183905260a06080820181905260009061122f9083018461109a565b979650505050505050565b600181811c9082168061124e57607f821691505b60208210810361126e57634e487b7160e01b600052602260045260246000fd5b50919050565b601f8211156103ca57600081815260208120601f850160051c8101602086101561129b5750805b601f850160051c820191505b818110156112ba578281556001016112a7565b505050505050565b815167ffffffffffffffff8111156112dc576112dc611113565b6112f0816112ea845461123a565b84611274565b602080601f831160018114611325576000841561130d5750858301515b600019600386901b1c1916600185901b1785556112ba565b600085815260208120601f198616915b8281101561135457888601518255948401946001909101908401611335565b50858210156113725787850151600019600388901b60f8161c191681555b5050505050600190811b01905550565b602081526000610fc9602083018461109a565b7f416363657373436f6e74726f6c3a206163636f756e74200000000000000000008152600083516113cd816017850160208801611076565b7001034b99036b4b9b9b4b733903937b6329607d1b60179184019182015283516113fe816028840160208801611076565b01602801949350505050565b634e487b7160e01b600052601160045260246000fd5b80820281158282048414176103165761031661140a565b808201808211156103165761031661140a565b634e487b7160e01b600052603260045260246000fd5b60008161146f5761146f61140a565b50600019019056fe5bb0bf1fabd5e975fc7a4520766d9e86e0eb281f8c7c44fcd3dfe60a11e786caa49807205ce4d355092ef5a8a18f56e8913cf4a201fbe287825b095693c21775a2646970667358221220beb2ea9cb5bf2bf68e22de9a1bd7835e7ab782ee0a4359c4fec187b97baf9ebe64736f6c63430008130033",
  "immutableReferences": {},
  "source": "// SPDX-License-Identifier: MIT\r\npragma solidity ^0.8.0;\r\n\r\nimport \"@openzeppelin/contracts/access/AccessControl.sol\";\r\nimport \"@openzeppelin/contracts/security/Pausable.sol\";\r\nimport \"@openzeppelin/contracts/utils/Counters.sol\";\r\n\r\ncontract CertificateRegistry is AccessControl, Pausable {\r\n    using Counters for Counters.Counter;\r\n    \r\n    bytes32 public constant UNIVERSITY_ROLE = keccak256(\"UNIVERSITY_ROLE\");\r\n    bytes32 public constant ADMIN_ROLE = keccak256(\"ADMIN_ROLE\");\r\n    \r\n    struct Certificate {\r\n        bytes32 certificateHash;\r\n        address issuer;\r\n        address student;\r\n        bool isRevoked;\r\n        uint256 timestamp;\r\n        string metadataURI;  // IPFS hash for additional data\r\n    }\r\n    \r\n    mapping(bytes32 => Certificate) public certificates;\r\n    mapping(address => bool) public universities;\r\n    Counters.Counter private _certificateCounter;\r\n    \r\n    event CertificateIssued(\r\n        bytes32 indexed certificateHash,\r\n        address indexed issuer,\r\n        address indexed student,\r\n        string metadataURI\r\n    );\r\n    \r\n    event CertificateRevoked(\r\n        bytes32 indexed certificateHash,\r\n        address indexed revokedBy,\r\n        uint256 timestamp\r\n    );\r\n    \r\n    event UniversityAdded(address university);\r\n    event UniversityRemoved(address university);\r\n    \r\n    constructor() {\r\n        _setupRole(DEFAULT_ADMIN_ROLE, msg.sender);\r\n        _setupRole(ADMIN_ROLE, msg.sender);\r\n    }\r\n    \r\n    modifier onlyUniversity() {\r\n        require(hasRole(UNIVERSITY_ROLE, msg.sender), \"Caller is not a university\");\r\n        _;\r\n    }\r\n    \r\n    function addUniversity(address university) public onlyRole(ADMIN_ROLE) {\r\n        grantRole(UNIVERSITY_ROLE, university);\r\n        universities[university] = true;\r\n        emit UniversityAdded(university);\r\n    }\r\n    \r\n    function removeUniversity(address university) public onlyRole(ADMIN_ROLE) {\r\n        revokeRole(UNIVERSITY_ROLE, university);\r\n        universities[university] = false;\r\n        emit UniversityRemoved(university);\r\n    }\r\n    \r\n    function issueCertificate(\r\n        bytes32 _certificateHash, \r\n        address _student,\r\n        string memory _metadataURI\r\n    ) \r\n        public \r\n        onlyUniversity \r\n        whenNotPaused \r\n    {\r\n        require(certificates[_certificateHash].timestamp == 0, \"Certificate already exists\");\r\n        require(_student != address(0), \"Invalid student address\");\r\n        \r\n        certificates[_certificateHash] = Certificate({\r\n            certificateHash: _certificateHash,\r\n            issuer: msg.sender,\r\n            student: _student,\r\n            isRevoked: false,\r\n            timestamp: block.timestamp,\r\n            metadataURI: _metadataURI\r\n        });\r\n        \r\n        _certificateCounter.increment();\r\n        emit CertificateIssued(_certificateHash, msg.sender, _student, _metadataURI);\r\n    }\r\n    \r\n    function verifyCertificate(bytes32 _certificateHash) \r\n        public \r\n        view \r\n        returns (\r\n            bool isValid,\r\n            address issuer,\r\n            address student,\r\n            uint256 timestamp,\r\n            string memory metadataURI\r\n        ) \r\n    {\r\n        Certificate memory cert = certificates[_certificateHash];\r\n        require(cert.timestamp != 0, \"Certificate does not exist\");\r\n        \r\n        return (\r\n            !cert.isRevoked,\r\n            cert.issuer,\r\n            cert.student,\r\n            cert.timestamp,\r\n            cert.metadataURI\r\n        );\r\n    }\r\n    \r\n    function revokeCertificate(bytes32 _certificateHash) \r\n        public \r\n    {\r\n        require(\r\n            hasRole(ADMIN_ROLE, msg.sender) || \r\n            certificates[_certificateHash].issuer == msg.sender,\r\n            \"Not authorized to revoke\"\r\n        );\r\n        require(certificates[_certificateHash].timestamp != 0, \"Certificate does not exist\");\r\n        require(!certificates[_certificateHash].isRevoked, \"Certificate already revoked\");\r\n        \r\n        certificates[_certificateHash].isRevoked = true;\r\n        emit CertificateRevoked(_certificateHash, msg.sender, block.timestamp);\r\n    }\r\n    \r\n    function getCertificateCount() public view returns (uint256) {\r\n        return _certificateCounter.current();\r\n    }\r\n    \r\n    function pause() public onlyRole(ADMIN_ROLE) {\r\n        _pause();\r\n    }\r\n    \r\n    function unpause() public onlyRole(ADMIN_ROLE) {\r\n        _unpause();\r\n    }\r\n} ",
  "sourcePath": "D:\\Hackathon\\SIT\\Round 2\\Code\\_from scratch\\contracts\\CertificateRegistry.sol",
  "compiler": {
    "name": "solc",
    "version": "0.8.19+commit.7dd6d404.Emscripten.clang"
  },
  "schemaVersion": "3.4.16",
  "updatedAt": "2025-02-19T17:09:20.102Z",
  "devdoc": {
    "events": {
      "Paused(address)": {
        "details": "Emitted when the pause is triggered by `account`."
      },
      "RoleAdminChanged(bytes32,bytes32,bytes32)": {
        "details": "Emitted when `newAdminRole` is set as ``role``'s admin role, replacing `previousAdminRole` `DEFAULT_ADMIN_ROLE` is the starting admin for all roles, despite {RoleAdminChanged} not being emitted signaling this. _Available since v3.1._"
      },
      "RoleGranted(bytes32,address,address)": {
        "details": "Emitted when `account` is granted `role`. `sender` is the account that originated the contract call, an admin role bearer except when using {AccessControl-_setupRole}."
      },
      "RoleRevoked(bytes32,address,address)": {
        "details": "Emitted when `account` is revoked `role`. `sender` is the account that originated the contract call:   - if using `revokeRole`, it is the admin role bearer   - if using `renounceRole`, it is the role bearer (i.e. `account`)"
      },
      "Unpaused(address)": {
        "details": "Emitted when the pause is lifted by `account`."
      }
    },
    "kind": "dev",
    "methods": {
      "getRoleAdmin(bytes32)": {
        "details": "Returns the admin role that controls `role`. See {grantRole} and {revokeRole}. To change a role's admin, use {_setRoleAdmin}."
      },
      "grantRole(bytes32,address)": {
        "details": "Grants `role` to `account`. If `account` had not been already granted `role`, emits a {RoleGranted} event. Requirements: - the caller must have ``role``'s admin role. May emit a {RoleGranted} event."
      },
      "hasRole(bytes32,address)": {
        "details": "Returns `true` if `account` has been granted `role`."
      },
      "paused()": {
        "details": "Returns true if the contract is paused, and false otherwise."
      },
      "renounceRole(bytes32,address)": {
        "details": "Revokes `role` from the calling account. Roles are often managed via {grantRole} and {revokeRole}: this function's purpose is to provide a mechanism for accounts to lose their privileges if they are compromised (such as when a trusted device is misplaced). If the calling account had been revoked `role`, emits a {RoleRevoked} event. Requirements: - the caller must be `account`. May emit a {RoleRevoked} event."
      },
      "revokeRole(bytes32,address)": {
        "details": "Revokes `role` from `account`. If `account` had been granted `role`, emits a {RoleRevoked} event. Requirements: - the caller must have ``role``'s admin role. May emit a {RoleRevoked} event."
      },
      "supportsInterface(bytes4)": {
        "details": "See {IERC165-supportsInterface}."
      }
    },
    "version": 1
  },
  "userdoc": {
    "kind": "user",
    "methods": {},
    "version": 1
  }
}