{
  "contractName": "CertificateContract",
  "abi": [
    {
      "anonymous": false,
      "inputs": [
        {
          "indexed": true,
          "internalType": "bytes32",
          "name": "hash",
          "type": "bytes32"
        },
        {
          "indexed": true,
          "internalType": "address",
          "name": "issuer",
          "type": "address"
        }
      ],
      "name": "CertificateIssued",
      "type": "event"
    },
    {
      "anonymous": false,
      "inputs": [
        {
          "indexed": true,
          "internalType": "bytes32",
          "name": "hash",
          "type": "bytes32"
        },
        {
          "indexed": true,
          "internalType": "address",
          "name": "issuer",
          "type": "address"
        }
      ],
      "name": "CertificateRevoked",
      "type": "event"
    },
    {
      "inputs": [
        {
          "internalType": "bytes32",
          "name": "",
          "type": "bytes32"
        }
      ],
      "name": "certificates",
      "outputs": [
        {
          "internalType": "bytes32",
          "name": "hash",
          "type": "bytes32"
        },
        {
          "internalType": "address",
          "name": "issuer",
          "type": "address"
        },
        {
          "internalType": "uint256",
          "name": "timestamp",
          "type": "uint256"
        },
        {
          "internalType": "bool",
          "name": "isValid",
          "type": "bool"
        }
      ],
      "stateMutability": "view",
      "type": "function",
      "constant": true
    },
    {
      "inputs": [
        {
          "internalType": "bytes32",
          "name": "_hash",
          "type": "bytes32"
        }
      ],
      "name": "issueCertificate",
      "outputs": [],
      "stateMutability": "nonpayable",
      "type": "function"
    },
    {
      "inputs": [
        {
          "internalType": "bytes32",
          "name": "_hash",
          "type": "bytes32"
        }
      ],
      "name": "verifyCertificate",
      "outputs": [
        {
          "internalType": "bool",
          "name": "",
          "type": "bool"
        },
        {
          "internalType": "address",
          "name": "",
          "type": "address"
        },
        {
          "internalType": "uint256",
          "name": "",
          "type": "uint256"
        }
      ],
      "stateMutability": "view",
      "type": "function",
      "constant": true
    },
    {
      "inputs": [
        {
          "internalType": "bytes32",
          "name": "_hash",
          "type": "bytes32"
        }
      ],
      "name": "revokeCertificate",
      "outputs": [],
      "stateMutability": "nonpayable",
      "type": "function"
    }
  ],
  "bytecode": "0x608060405234801561001057600080fd5b506106f9806100206000396000f3fe608060405234801561001057600080fd5b506004361061004c5760003560e01c8063742f068814610051578063850c176814610084578063a1f81824146100b6578063c6cbc52a146100d2575b600080fd5b61006b600480360381019061006691906104a8565b6100ee565b60405161007b94939291906105c4565b60405180910390f35b61009e600480360381019061009991906104a8565b61014b565b6040516100ad9392919061058d565b60405180910390f35b6100d060048036038101906100cb91906104a8565b610212565b005b6100ec60048036038101906100e791906104a8565b61037b565b005b60006020528060005260406000206000915090508060000154908060010160009054906101000a900473ffffffffffffffffffffffffffffffffffffffff16908060020154908060030160009054906101000a900460ff16905084565b600080600080600080868152602001908152602001600020604051806080016040529081600082015481526020016001820160009054906101000a900473ffffffffffffffffffffffffffffffffffffffff1673ffffffffffffffffffffffffffffffffffffffff1673ffffffffffffffffffffffffffffffffffffffff168152602001600282015481526020016003820160009054906101000a900460ff1615151515815250509050806060015181602001518260400151935093509350509193909250565b6000806000838152602001908152602001600020600201541461026a576040517f08c379a000000000000000000000000000000000000000000000000000000000815260040161026190610609565b60405180910390fd5b60405180608001604052808281526020013373ffffffffffffffffffffffffffffffffffffffff168152602001428152602001600115158152506000808381526020019081526020016000206000820151816000015560208201518160010160006101000a81548173ffffffffffffffffffffffffffffffffffffffff021916908373ffffffffffffffffffffffffffffffffffffffff1602179055506040820151816002015560608201518160030160006101000a81548160ff0219169083151502179055509050503373ffffffffffffffffffffffffffffffffffffffff16817f11fb9f283c08b0122fe14bf3b5692d38f07282003f545f4bbc8b766ddcbda83260405160405180910390a350565b3373ffffffffffffffffffffffffffffffffffffffff1660008083815260200190815260200160002060010160009054906101000a900473ffffffffffffffffffffffffffffffffffffffff1673ffffffffffffffffffffffffffffffffffffffff161461041e576040517f08c379a000000000000000000000000000000000000000000000000000000000815260040161041590610629565b60405180910390fd5b600080600083815260200190815260200160002060030160006101000a81548160ff0219169083151502179055503373ffffffffffffffffffffffffffffffffffffffff16817f1dbd7f0554a6447214abb6405781d5ee119037a7024fcb7fffd542c3c12cd77660405160405180910390a350565b6000813590506104a2816106ac565b92915050565b6000602082840312156104ba57600080fd5b60006104c884828501610493565b91505092915050565b6104da8161065a565b82525050565b6104e98161066c565b82525050565b6104f881610678565b82525050565b600061050b601a83610649565b91507f436572746966696361746520616c7265616479206578697374730000000000006000830152602082019050919050565b600061054b601683610649565b91507f4f6e6c79206973737565722063616e207265766f6b65000000000000000000006000830152602082019050919050565b610587816106a2565b82525050565b60006060820190506105a260008301866104e0565b6105af60208301856104d1565b6105bc604083018461057e565b949350505050565b60006080820190506105d960008301876104ef565b6105e660208301866104d1565b6105f3604083018561057e565b61060060608301846104e0565b95945050505050565b60006020820190508181036000830152610622816104fe565b9050919050565b600060208201905081810360008301526106428161053e565b9050919050565b600082825260208201905092915050565b600061066582610682565b9050919050565b60008115159050919050565b6000819050919050565b600073ffffffffffffffffffffffffffffffffffffffff82169050919050565b6000819050919050565b6106b581610678565b81146106c057600080fd5b5056fea2646970667358221220e2daffe20125154b49462910c89260213f9bfc40a752eac430ebb073554087ce64736f6c63430008000033",
  "immutableReferences": {},
  "source": "// SPDX-License-Identifier: MIT\r\npragma solidity ^0.8.0;\r\n\r\ncontract CertificateContract {\r\n    struct Certificate {\r\n        bytes32 hash;\r\n        address issuer;\r\n        uint256 timestamp;\r\n        bool isValid;\r\n    }\r\n    \r\n    mapping(bytes32 => Certificate) public certificates;\r\n    \r\n    event CertificateIssued(bytes32 indexed hash, address indexed issuer);\r\n    event CertificateRevoked(bytes32 indexed hash, address indexed issuer);\r\n    \r\n    function issueCertificate(bytes32 _hash) public {\r\n        require(certificates[_hash].timestamp == 0, \"Certificate already exists\");\r\n        \r\n        certificates[_hash] = Certificate({\r\n            hash: _hash,\r\n            issuer: msg.sender,\r\n            timestamp: block.timestamp,\r\n            isValid: true\r\n        });\r\n        \r\n        emit CertificateIssued(_hash, msg.sender);\r\n    }\r\n    \r\n    function verifyCertificate(bytes32 _hash) public view returns (bool, address, uint256) {\r\n        Certificate memory cert = certificates[_hash];\r\n        return (cert.isValid, cert.issuer, cert.timestamp);\r\n    }\r\n    \r\n    function revokeCertificate(bytes32 _hash) public {\r\n        require(certificates[_hash].issuer == msg.sender, \"Only issuer can revoke\");\r\n        certificates[_hash].isValid = false;\r\n        emit CertificateRevoked(_hash, msg.sender);\r\n    }\r\n} ",
  "sourcePath": "D:\\Hackathon\\SIT\\Round 2\\Code\\sahil 22\\connet\\contracts\\CertificateContract.sol",
  "compiler": {
    "name": "solc",
    "version": "0.8.0+commit.c7dfd78e.Emscripten.clang"
  },
  "schemaVersion": "3.4.16",
  "updatedAt": "2025-02-20T07:19:10.146Z",
  "networkType": "ethereum",
  "devdoc": {
    "kind": "dev",
    "methods": {},
    "version": 1
  },
  "userdoc": {
    "kind": "user",
    "methods": {},
    "version": 1
  }
}